{
  "contractName": "Lottery",
  "abi": [
    {
      "constant": true,
      "inputs": [],
      "name": "manager",
      "outputs": [
        {
          "internalType": "address",
          "name": "",
          "type": "address"
        }
      ],
      "payable": false,
      "stateMutability": "view",
      "type": "function"
    },
    {
      "constant": true,
      "inputs": [
        {
          "internalType": "uint256",
          "name": "",
          "type": "uint256"
        }
      ],
      "name": "users",
      "outputs": [
        {
          "internalType": "address",
          "name": "user",
          "type": "address"
        },
        {
          "internalType": "uint256",
          "name": "steps",
          "type": "uint256"
        },
        {
          "internalType": "uint256",
          "name": "balance",
          "type": "uint256"
        },
        {
          "internalType": "bool",
          "name": "stepRestrict",
          "type": "bool"
        }
      ],
      "payable": false,
      "stateMutability": "view",
      "type": "function"
    },
    {
      "constant": false,
      "inputs": [
        {
          "internalType": "uint256",
          "name": "ustep",
          "type": "uint256"
        },
        {
          "internalType": "address",
          "name": "uadd",
          "type": "address"
        },
        {
          "internalType": "uint256",
          "name": "ubalance",
          "type": "uint256"
        }
      ],
      "name": "enter",
      "outputs": [
        {
          "internalType": "bool",
          "name": "",
          "type": "bool"
        }
      ],
      "payable": false,
      "stateMutability": "nonpayable",
      "type": "function"
    },
    {
      "constant": true,
      "inputs": [],
      "name": "getAll",
      "outputs": [
        {
          "components": [
            {
              "internalType": "address",
              "name": "user",
              "type": "address"
            },
            {
              "internalType": "uint256",
              "name": "steps",
              "type": "uint256"
            },
            {
              "internalType": "uint256",
              "name": "balance",
              "type": "uint256"
            },
            {
              "internalType": "bool",
              "name": "stepRestrict",
              "type": "bool"
            }
          ],
          "internalType": "struct Lottery.userInfo[]",
          "name": "",
          "type": "tuple[]"
        }
      ],
      "payable": false,
      "stateMutability": "view",
      "type": "function"
    },
    {
      "constant": false,
      "inputs": [
        {
          "internalType": "address",
          "name": "to",
          "type": "address"
        },
        {
          "internalType": "uint256",
          "name": "amount",
          "type": "uint256"
        }
      ],
      "name": "transfer",
      "outputs": [],
      "payable": true,
      "stateMutability": "payable",
      "type": "function"
    },
    {
      "constant": true,
      "inputs": [],
      "name": "get",
      "outputs": [
        {
          "internalType": "string",
          "name": "",
          "type": "string"
        }
      ],
      "payable": false,
      "stateMutability": "view",
      "type": "function"
    }
  ],
  "bytecode": "0x6080604052336000806101000a81548173ffffffffffffffffffffffffffffffffffffffff021916908373ffffffffffffffffffffffffffffffffffffffff1602179055506040518060400160405280600581526020017f54657374740000000000000000000000000000000000000000000000000000008152506001908051906020019061008f9291906100a2565b5034801561009c57600080fd5b50610147565b828054600181600116156101000203166002900490600052602060002090601f016020900481019282601f106100e357805160ff1916838001178555610111565b82800160010185558215610111579182015b828111156101105782518255916020019190600101906100f5565b5b50905061011e9190610122565b5090565b61014491905b80821115610140576000816000905550600101610128565b5090565b90565b610979806101566000396000f3fe6080604052600436106100555760003560e01c8063365b98b21461005a578063481c6a751461009a57806353ed5143146100c55780636d4ce63c146100f0578063a9059cbb1461011b578063d15d2e4314610137575b600080fd5b34801561006657600080fd5b50610081600480360361007c9190810190610592565b610174565b6040516100919493929190610783565b60405180910390f35b3480156100a657600080fd5b506100af6101d1565b6040516100bc9190610768565b60405180910390f35b3480156100d157600080fd5b506100da6101f6565b6040516100e791906107c8565b60405180910390f35b3480156100fc57600080fd5b50610105610323565b6040516101129190610805565b60405180910390f35b61013560048036036101309190810190610556565b610360565b005b34801561014357600080fd5b5061015e600480360361015991908101906105bb565b6103ae565b60405161016b91906107ea565b60405180910390f35b60026020528060005260406000206000915090508060000160009054906101000a900473ffffffffffffffffffffffffffffffffffffffff16908060010154908060020154908060030160009054906101000a900460ff16905084565b6000809054906101000a900473ffffffffffffffffffffffffffffffffffffffff1681565b60608060035460405190808252806020026020018201604052801561023557816020015b6102226104ac565b81526020019060019003908161021a5790505b50905060008090505b60035481101561031b576102506104ec565b600260008381526020019081526020016000206040518060800160405290816000820160009054906101000a900473ffffffffffffffffffffffffffffffffffffffff1673ffffffffffffffffffffffffffffffffffffffff1673ffffffffffffffffffffffffffffffffffffffff16815260200160018201548152602001600282015481526020016003820160009054906101000a900460ff16151515158152505090508083838151811061030257fe5b602002602001018190525050808060010191505061023e565b508091505090565b60606040518060400160405280600481526020017f5465737400000000000000000000000000000000000000000000000000000000815250905090565b80600260008081526020019081526020016000206002016000828254039250508190555080600260006003548152602001908152602001600020600201600082825401925050819055505050565b6000806000905061271085106103c357600190505b60405180608001604052808573ffffffffffffffffffffffffffffffffffffffff16815260200186815260200184815260200182151581525060026000600354815260200190815260200160002060008201518160000160006101000a81548173ffffffffffffffffffffffffffffffffffffffff021916908373ffffffffffffffffffffffffffffffffffffffff160217905550602082015181600101556040820151816002015560608201518160030160006101000a81548160ff021916908315150217905550905050600360008154809291906001019190505550809150509392505050565b6040518060800160405280600073ffffffffffffffffffffffffffffffffffffffff16815260200160008152602001600081526020016000151581525090565b6040518060800160405280600073ffffffffffffffffffffffffffffffffffffffff16815260200160008152602001600081526020016000151581525090565b60008135905061053b81610908565b92915050565b6000813590506105508161091f565b92915050565b6000806040838503121561056957600080fd5b60006105778582860161052c565b925050602061058885828601610541565b9150509250929050565b6000602082840312156105a457600080fd5b60006105b284828501610541565b91505092915050565b6000806000606084860312156105d057600080fd5b60006105de86828701610541565b93505060206105ef8682870161052c565b925050604061060086828701610541565b9150509250925092565b600061061683836106f5565b60808301905092915050565b61062b8161087c565b82525050565b61063a8161087c565b82525050565b600061064b82610837565b610655818561085a565b935061066083610827565b8060005b83811015610691578151610678888261060a565b97506106838361084d565b925050600181019050610664565b5085935050505092915050565b6106a78161088e565b82525050565b6106b68161088e565b82525050565b60006106c782610842565b6106d1818561086b565b93506106e18185602086016108c4565b6106ea816108f7565b840191505092915050565b60808201600082015161070b6000850182610622565b50602082015161071e602085018261074a565b506040820151610731604085018261074a565b506060820151610744606085018261069e565b50505050565b610753816108ba565b82525050565b610762816108ba565b82525050565b600060208201905061077d6000830184610631565b92915050565b60006080820190506107986000830187610631565b6107a56020830186610759565b6107b26040830185610759565b6107bf60608301846106ad565b95945050505050565b600060208201905081810360008301526107e28184610640565b905092915050565b60006020820190506107ff60008301846106ad565b92915050565b6000602082019050818103600083015261081f81846106bc565b905092915050565b6000819050602082019050919050565b600081519050919050565b600081519050919050565b6000602082019050919050565b600082825260208201905092915050565b600082825260208201905092915050565b60006108878261089a565b9050919050565b60008115159050919050565b600073ffffffffffffffffffffffffffffffffffffffff82169050919050565b6000819050919050565b60005b838110156108e25780820151818401526020810190506108c7565b838111156108f1576000848401525b50505050565b6000601f19601f8301169050919050565b6109118161087c565b811461091c57600080fd5b50565b610928816108ba565b811461093357600080fd5b5056fea365627a7a72315820609886a96613272b50b460a5b5975f515c39fbde2ed3cce3762c322f252e50086c6578706572696d656e74616cf564736f6c63430005100040",
  "source": "pragma experimental ABIEncoderV2;\npragma solidity >=0.4.21 <0.7.0;\n\n//import \"https://github.com/OpenZeppelin/openzeppelin-contracts/blob/v3.4.0-solc-0.7/contracts/token/ERC20/ERC20.sol\";\ncontract Lottery{\n    address public manager = msg.sender;\n    //  uint public constant MaxNumber = 50;\n\n    string x = \"Testt\";\n\n    struct userInfo {\n        address user;\n        uint steps;\n        uint balance;\n        bool stepRestrict;\n    }\n\n    mapping (uint => userInfo) public users;\n    uint numOfUsers;\n\n\n   \n\n    function enter(uint ustep,address uadd,uint ubalance) public returns(bool) {\n        bool stepRestrict = false;\n        if (ustep >= 10000){\n            stepRestrict=true;\n        }\n        users[numOfUsers]=userInfo(uadd, ustep, ubalance, stepRestrict);\n        numOfUsers++;\n        return stepRestrict;\n    }\n\n    //function getUsers(address uadd) public  view returns(userInfo[]) {\n       // return userInfo;\n   // }\n\n    function getAll() public view returns(userInfo[] memory){\n        userInfo[] memory allUsers = new userInfo[](numOfUsers);\n        for(uint i=0; i<numOfUsers; i++){\n            userInfo memory instance = users[i];\n            allUsers[i] = instance;\n        }\n        return allUsers;\n    }\n\n    // function getUsers(address uadd) public  view returns(uint,uint,bool) {\n    //     return (users[uadd].steps,users[uadd].balance,users[uadd].stepRestrict);\n    // }\n\n    //modifier restricted() {\n      //  require(msg.sender == manager);\n       // _;\n  //  }\n\n     function transfer (address to,uint amount)public payable \n     {\n         users[0].balance -= amount;\n         users[numOfUsers].balance += amount;\n    //emit transfer(from, to, amount);\n     }\n\n    function get() public view returns(string memory){\n        return \"Test\";\n    }\n}",
  "sourcePath": "C:\\Users\\ACER\\Documents\\Lottery\\contracts\\Lottery.sol",
  "compiler": {
    "name": "solc",
    "version": "0.5.16+commit.9c3226ce.Emscripten.clang"
  },
  "schemaVersion": "3.4.3",
  "updatedAt": "2021-08-25T13:05:03.777Z",
  "devdoc": {
    "methods": {}
  },
  "userdoc": {
    "methods": {}
  }
}